:100000000C942E000C94AD020C94AD020C94AD0235
:100010000C94AD020C94AD020C94AD020C94AD02A4
:100020000C94AD020C94AD020C94AD020C94AD0294
:100030000C94AD020C94AD020C94AD020C94AD0284
:100040000C94AD020C94AD020C94AD020C94AD0274
:100050000C94AD02006000800005680011241FBEF2
:10006000CFE5D8E0DEBFCDBFE4E5F0E040E017C06B
:10007000B591A59135912591059107FD0CC09591FC
:100080008591EF01F92FE82F05900D92A217B30784
:10009000D9F7FE0104C01D92A217B307E1F7EB35B3
:1000A000F40731F70E9458000C94A202F894FFCF95
:1000B0000E9434020F2EFDECFF2EF02D8BE790E016
:1000C0000E947A028BE790E00E947A020FE02EC035
:1000D00060E08EE790E00E949C0161E08FE790E095
:1000E0000E949C016D2F80E790E00E9409028FE33F
:1000F0009CE90197F1F700C0000060E08FE790E015
:100100000E949C0161E08EE790E00E949C01612FBB
:1001100080E790E00E9409028FE39CE90197F1F7E4
:1001200000C00000C150A1F6015081F00F9DD12DFB
:100130001124D695D695D6959D2F990F892F880F86
:10014000880F890F102F181BC2E3C2CF8BE790E0F6
:100150000E9465028FE19EE40197F1F700C0000064
:1001600088E790E00E947A0288E790E00E947A0295
:1001700005E02EC060E08EE790E00E949C0161E007
:100180008FE790E00E949C016D2F80E790E00E9435
:1001900009028FE39CE90197F1F700C0000060E0DD
:1001A0008FE790E00E949C0161E08EE790E00E9462
:1001B0009C01612F80E790E00E9409028FE39CE997
:1001C0000197F1F700C00000C150A1F6015081F085
:1001D0000F9DD12D1124D695D695D6959D2F990F8B
:1001E000892F880F880F890F102F181BC2E3C2CFE9
:1001F00088E790E00E9465028FE19EE40197F1F7A5
:1002000000C0000085E790E00E947A0285E790E058
:100210000E947A020AE02EC060E08EE790E00E9421
:100220009C0161E08FE790E00E949C016D2F80E7C8
:1002300090E00E9409028FE39CE90197F1F700C06A
:10024000000060E08FE790E00E949C0161E08EE793
:1002500090E00E949C01612F80E790E00E940902DB
:100260008FE39CE90197F1F700C00000C150A1F6AF
:10027000015081F00F9DD12D1124D695D695D6959C
:100280009D2F990F892F880F880F890F102F181B0A
:10029000C2E3C2CF85E790E00E9465028FE19EE451
:0A02A0000197F1F700C0000009CF3C
:1002AA00FC01892B09F43FC0808186958695869545
:1002BA008770908196FB222720F996FF03C0213090
:1002CA00D1F033C0E081E770F0E0EE0FFF1FE8598C
:1002DA00FF4F0190F081E02D408121E030E0B9012B
:1002EA0002C0660F771F8A95E2F7CB0180958423B7
:1002FA00808381E00895E081E770F0E0EE0FFF1F50
:10030A00E859FF4F0190F081E02D408121E030E073
:10031A00B90102C0660F771F8A95E2F7CB01842BD9
:0E032A00808381E0089580E0089580E00895CA
:10033800FC01892BD9F190819695969596959770A1
:10034800662319F06130D1F033C0E081E770F0E046
:10035800EE0FFF1FE05AFF4F0190F081E02D408122
:1003680021E030E0B90102C0660F771F9A95E2F7E5
:10037800CB0180958423808381E00895E081E77034
:10038800F0E0EE0FFF1FE05AFF4F0190F081E02DE3
:10039800408121E030E0B90102C0660F771F9A95CD
:1003A800E2F7CB01842B808381E0089580E00895F3
:0403B80080E0089544
:1003BC001F93CF93DF93009709F1EC010E94550135
:1003CC008A81882319F0813039F013C089818130FA
:1003DC0049F0882349F00DC08981813039F0882398
:1003EC0039F007C010E005C011E003C011E001C0F6
:1003FC0010E0612FCE010E949C0101C080E0DF91D2
:06040C00CF911F9108953D
:10041200EF92FF920F931F93CF93DF930097C9F050
:100422006A30C8F47C01C0E0D0E0062F10E0B801C9
:100432000C2E02C0759567950A94E2F76170C701A8
:100442008C0F9D1F0E949C012196C430D10579F723
:1004520003C080E001C080E0DF91CF911F910F9136
:06046200FF90EF900895E9
:100468008BE790E00E94DE0188E790E00E94DE01C1
:1004780085E790E00E94DE0180E790E00E944D024F
:100488008FE790E00E948F028EE790E00E948F0233
:020498000895C5
:10049A000F931F93CF93DF93009761F0EC018C01C8
:1004AA000C5F1F4FCE010E948F0221960C171D0769
:1004BA00C9F701C080E0DF91CF911F910F91089594
:1004CA00009779F0FC012281222319F0213029F0CA
:1004DA000AC061E00E949C01089560E00E949C01AC
:0A04EA00089580E0089580E0089571
:1004F400009779F0FC012281222319F0213029F0A0
:100504000AC060E00E949C01089561E00E949C0181
:0A051400089580E0089580E0089546
:10051E00CF93DF93009759F0EC010E94550168814B
:10052E0067FB662760F9CE010E949C0101C080E046
:06053E00DF91CF9108954A
:10054400EC010E94B2020E94B102CE010E94B302E9
:06055400CE010E94AF027F
:04055A000C940000FD
:04055E000E945600A1
:020562000895FA
:020564000895F8
:020566000895F6
:080568003B00380035003200B1
:080570003A00370034003100AD
:050578005A626A7201E5
:03057D0052000128
:030580004A00012D
:0305830042000132
:010586000B69
:010587004330
:00000001FF
