:100000000C9436000C9468020C9468020C946802FC
:100010000C9468020C9468020C9468020C946802B8
:100020000C9468020C9468020C9468020C946802A8
:100030000C9468020C9468020C9468020C94680298
:100040000C9468020C9468020C9468020C94680288
:100050000C946802006000820004DE008200878049
:100060000087008B000500008B008C8011241FBED0
:10007000CFE5D8E0DEBFCDBFE4E5F0E040E017C05B
:10008000B591A59135912591059107FD0CC09591EC
:100090008591EF01F92FE82F05900D92A217B30774
:1000A000D9F7FE0104C01D92A217B307E1F7EC36A1
:1000B000F40731F70E9460000C945602F894FFCFC9
:1000C0000E94E1010F2EF7E8CF2EF0E0DF2EF02D99
:1000D0000F2EF2E8AF2EF0E0BF2EF02D10928B0025
:1000E0000F2EF0E6EF2EF0E0FF2EF02DC2E8D0E06C
:1000F000BE01C7010E94350188812196813029F413
:1001000080918B008F5F80938B0082E0E80EF11C62
:10011000CC15DD0569F7F5018081813069F48091A6
:100120008B00813049F489E890E00E94220287E840
:1001300090E00E942202D2CFF5018181813069F4E2
:1001400080918B00813049F489E890E00E9434026C
:1001500087E890E00E943402C1CFF50182818130AE
:1001600069F480918B008130A1F589E890E00E94CC
:10017000220287E890E00E943402B0CFF50183812B
:10018000813069F480918B008130D1F489E890E06E
:100190000E94340287E890E00E9422029FCFF5017E
:1001A0008481813069F480918B00813049F489E841
:1001B00090E00E94100287E890E00E9410028ECF2B
:1001C00089E890E00E94100287E890E00E94100207
:0C01D00085CFF5018381813011F7F2CF5B
:1001DC00FC01892B09F43FC0808186958695869514
:1001EC008770908196FB222720F996FF03C021305F
:1001FC00D1F033C0E081E770F0E0EE0FFF1FE6585E
:10020C00FF4F0190F081E02D408121E030E0B901F9
:10021C0002C0660F771F8A95E2F7CB018095842385
:10022C00808381E00895E081E770F0E0EE0FFF1F1E
:10023C00E658FF4F0190F081E02D408121E030E045
:10024C00B90102C0660F771F8A95E2F7CB01842BA8
:0E025C00808381E0089580E0089580E0089599
:10026A00EF92FF920F931F93CF93DF930F92CDB725
:10027A00DEB7009779F16115710571F17B018C0187
:10028A001982BE016F5F7F4F0E94BC01F801918104
:10029A00992319F0913069F017C09981913019F4B6
:1002AA00F70110821AC0911111C091E0F7019083F1
:1002BA0014C09981913019F4F70190830EC09111FD
:1002CA0007C0F701108209C080E007C080E005C0BE
:1002DA0080E003C080E001C080E00F90DF91CF9101
:0A02EA001F910F91FF90EF9008950F
:1002F400FC01892BD9F190819695969596959770E6
:10030400662319F06130D1F033C0E081E770F0E08A
:10031400EE0FFF1FE659FF4F0190F081E02D408161
:1003240021E030E0B90102C0660F771F9A95E2F729
:10033400CB0180958423808381E00895E081E77078
:10034400F0E0EE0FFF1FE659FF4F0190F081E02D22
:10035400408121E030E0B90102C0660F771F9A9511
:10036400E2F7CB01842B808381E0089580E0089537
:0403740080E0089588
:100378000097F9F061157105F1F0DC012C912695D3
:10038800269526952770EC91E770F0E0EE0FFF1F99
:10039800EE58FF4F0190F081E02D808190E002C07F
:1003A800959587952A95E2F78170FB01808381E016
:0A03B800089580E0089580E00895A4
:1003C2000F931F93CF93DF93C0E6D0E00AE610E0CD
:1003D200CE010E9461022296C017D107C9F789E8AF
:1003E20090E00E94460287E890E00E944602DF9178
:0803F200CF911F910F910895B6
:1003FA00CF93DF93009759F0EC010E94EE006881D9
:10040A0067FB662760F9CE010E947A0101C080E08D
:06041A00DF91CF9108956F
:10042000CF93DF93009751F0EC0160E00E947A01D6
:1004300060E0CE0101960E947A0101C080E0DF9168
:04044000CF910895BB
:10044400CF93DF93009751F0EC0161E00E947A01B1
:1004540060E0CE0101960E947A0101C080E0DF9144
:04046400CF91089597
:10046800CF93DF93009751F0EC0160E00E947A018E
:1004780061E0CE0101960E947A0101C080E0DF911F
:04048800CF91089573
:10048C00CF93DF93009741F0EC010E94FD01CE0168
:10049C0001960E94FD0101C080E0DF91CF9108958B
:1004AC00EC010E946D020E946C02CE010E946E0251
:0604BC00CE010E946A025D
:0E04C200009719F00E94EE00089580E0089562
:0404D0000C94000088
:0404D4000E945E0024
:0204D800089585
:0204DA00089583
:0204DC00089581
:0A04DE0003018B0113019B012301B0
:0804E8003B0038003500320032
:0804F000390036003300300032
:0804F8003A0037003400310026
:02050000525A4D
:02050200424A6B
:00000001FF
